:100000000C9462000C948A000C948A000C948A0070
:100010000C948A000C948A000C948A000C948A0038
:100020000C948A000C948A000C948A000C948A0028
:100030000C948A000C948A000C948A000C948A0018
:100040000C94DB030C948A000C944B040C94250450
:100050000C948A000C948A000C948A000C948A00F8
:100060000C948A000C948A000000000023002600F3
:10007000290000000000240027002A0000000000E2
:10008000250028002B0004040404040404040202D4
:100090000202020203030303030301020408102007
:1000A0004080010204081020010204081020000012
:1000B0000008000201000003040700000000000027
:1000C00000007D0411241FBECFEFD8E0DEBFCDBFFE
:1000D00011E0A0E0B1E0E6E8F1E102C005900D9288
:1000E000A837B107D9F722E0A8E7B1E001C01D9217
:1000F000AD32B207E1F710E0C2E6D0E004C02197CC
:10010000FE010E94BB08C136D107C9F70E94AC04AA
:100110000C94C1080C940000E2E8F1E0A089B189D8
:1001200082E08C93A485B5851C92A685B7858FEC5B
:100130008C93108EA489B58986E08C93A289B389AB
:100140008C9180618C93A289B3898C9188608C9307
:10015000A289B3898C9180688C930288F389E02D01
:1001600080818F7D80830895833081F028F48130F1
:1001700099F08230A9F008958730A9F08830C9F04D
:100180008430B1F4809180008F7D03C08091800025
:100190008F7780938000089584B58F7784BD08950C
:1001A00084B58F7DFBCF8091B0008F778093B000B6
:1001B00008958091B0008F7DF9CF1F93CF93DF9387
:1001C000282F30E0F901E255FF4F8491F901E656FE
:1001D000FF4FD491F901EA57FF4FC491CC23A9F006
:1001E000162F81110E94B400EC2FF0E0EE0FFF1FDC
:1001F000E458FF4FA591B4918FB7F894EC91111189
:1002000008C0D095DE23DC938FBFDF91CF911F9183
:100210000895DE2BF8CFCF93DF9390E0FC01E656F4
:10022000FF4F24918A579F4FFC0184918823D1F07E
:1002300090E0880F991FFC01EE58FF4FA591B491F3
:10024000FC01E458FF4FC591D49161110EC09FB7D6
:10025000F8948C91E22FE0958E238C932881E223F1
:10026000E8839FBFDF91CF9108958FB7F894EC9109
:10027000E22BEC938FBFF6CF3FB7F89480917E01CD
:1002800090917F01A0918001B091810126B5A89B3A
:1002900005C02F3F19F00196A11DB11D3FBFBA2F18
:1002A000A92F982F8827BC01CD01620F711D811DD8
:1002B000911D42E0660F771F881F991F4A95D1F75D
:1002C00008958F929F92AF92BF92CF92DF92EF925A
:1002D000FF924B015C010E943C016B017C010E947A
:1002E0003C016C197D098E099F09683E73408105A8
:1002F0009105A8F321E0821A9108A108B10888EEBF
:10030000C80E83E0D81EE11CF11C81149104A104E5
:10031000B10429F7FF90EF90DF90CF90BF90AF909E
:100320009F908F900895AF92BF92CF92DF92EF92FD
:10033000FF920F931F93CF93DF936C017B018B018F
:10034000040F151FEB015E01AE18BF08C017D107DF
:1003500059F06991D601ED91FC910190F081E02D69
:10036000C6010995892B79F7C501DF91CF911F91BE
:100370000F91FF90EF90DF90CF90BF90AF900895D6
:10038000FC01538D448D252F30E0842F90E0821B9B
:10039000930B541710F0CF96089501970895FC0120
:1003A000918D828D981761F0A28DAE0FBF2FB11D78
:1003B0005D968C91928D9F5F9F73928F90E00895D0
:1003C0008FEF9FEF0895FC01918D828D981731F08A
:1003D000828DE80FF11D858D90E008958FEF9FEFDE
:1003E0000895FC01918D228D892F90E0805C9F4FB4
:1003F000821B91098F739927089582E891E00E94EA
:10040000F10121E0892B09F420E0822F089580E09A
:1004100090E0892B29F00E94FD0181110C940000CD
:100420000895FC01A48DA80FB92FB11DA35ABF4F89
:100430002C91848D90E001968F739927848FA689E3
:10044000B7892C93A089B1898C91837080648C9337
:10045000938D848D981306C00288F389E02D8081E6
:100460008F7D80830895EF92FF920F931F93CF9318
:10047000DF93EC0181E0888F9B8D8C8D98131AC0DF
:10048000E889F989808185FF15C09FB7F894EE89C6
:10049000FF896083E889F989808183708064808323
:1004A0009FBF81E090E0DF91CF911F910F91FF906E
:1004B000EF900895F62E0B8D10E00F5F1F4F0F7316
:1004C0001127E02E8C8D8E110CC00FB607FCFACFD1
:1004D000E889F989808185FFF5CFCE010E9411025C
:1004E000F1CFEB8DEC0FFD2FF11DE35AFF4FF082A2
:1004F0009FB7F8940B8FEA89FB8980818062CFCF08
:10050000CF93DF93EC01888D8823B9F0AA89BB894A
:10051000E889F9898C9185FD03C0808186FD0DC035
:100520000FB607FCF7CF8C9185FFF2CF808185FF56
:10053000EDCFCE010E941102E9CFDF91CF91089556
:10054000FC0101900020E9F73197AF01481B590BDE
:10055000BC0182E891E00C9493018F929F92AF923C
:10056000BF920F931F93CF93DF93CDB7DEB7A197C1
:100570000FB6F894DEBF0FBECDBF19A2423008F40B
:100580004AE08E010F5D1F4F842E912CB12CA12CBF
:10059000A50194010E949908E62FB901CA01EA3029
:1005A000F4F4E05DD801EE938D01232B242B252B51
:1005B00079F790E080E0109719F0CD010E94A00239
:1005C000A1960FB6F894DEBF0FBECDBFDF91CF91DD
:1005D0001F910F91BF90AF909F908F900895E95C0D
:1005E000E1CFCF93DF930E94A002EC0182E191E082
:1005F0000E94A0028C0F9D1FDF91CF9108954F9212
:100600005F926F927F928F929F92AF92BF92CF92A2
:10061000DF92EF92FF920F931F93CF936B017C01B8
:10062000742EAC019B010E949408882399F085E107
:1006300091E0CF911F910F91FF90EF90DF90CF90BD
:10064000BF90AF909F908F907F906F905F904F90F2
:100650000C94A00246015701E894B7F82FEF3FEF42
:100660004FE75FE7C501B4010E94940881110DC0F6
:100670002FEF3FEF4FE75FE7C501B4010E94CA06C5
:1006800018161CF489E191E0D4CF2FEF3FEF4FE72C
:100690005FE4C701B6010E94220818161CF48DE120
:1006A00091E0C7CF2FEF3FEF4FE75FECC701B601F7
:1006B0000E94CA0687FDF3CF20E030E0A901C70100
:1006C000B6010E94CA0610E000E087FF0AC06DE292
:1006D00082E891E00E9433028C01F7FAF094F7F877
:1006E000F094C0E060E070E080E09FE37C1641F0B1
:1006F00020E030E040E251E40E94CF06CF5FF6CF29
:10070000A70196010E945E062B013C010E94410751
:100710004B015C014AE00E94AD027C01E00EF11E3B
:10072000CC23C1F1C501B4010E9470079B01AC014B
:10073000C301B2010E945D064B015C016EE282E8DA
:1007400091E00E943302E80EF91EC15018F120E03A
:1007500030E040E251E4C501B4010E9427082B01BA
:100760003C010E9441074B01B12CA12C4AE0C5017C
:10077000B4010E94AD02E80EF91EC501B4010E9449
:1007800070079B01AC01C301B2010E945D064B01E1
:100790005C01DBCFC701CF911F910F91FF90EF90CC
:1007A000DF90CF90BF90AF909F908F907F906F9091
:1007B0005F904F9008951F920F920FB60F921124E1
:1007C0002F933F938F939F93AF93BF9380917A0121
:1007D00090917B01A0917C01B0917D0130917901D4
:1007E00023E0230F2D3758F50196A11DB11D20934D
:1007F000790180937A0190937B01A0937C01B0935F
:100800007D0180917E0190917F01A0918001B09146
:1008100081010196A11DB11D80937E0190937F01FE
:10082000A0938001B0938101BF91AF919F918F916F
:100830003F912F910F900FBE0F901F90189526E8B3
:10084000230F0296A11DB11DD2CF1F920F920FB69A
:100850000F9211242F933F934F935F936F937F9346
:100860008F939F93AF93BF93EF93FF9382E891E0B1
:100870000E941102FF91EF91BF91AF919F918F91D3
:100880007F916F915F914F913F912F910F900FBE8C
:100890000F901F9018951F920F920FB60F92112470
:1008A0002F938F939F93EF93FF93E0919201F09199
:1008B00093018081E0919801F091990182FD1BC024
:1008C000908180919B018F5F8F7320919C01821793
:1008D00041F0E0919B01F0E0EE57FE4F958F809341
:1008E0009B01FF91EF919F918F912F910F900FBEE0
:1008F0000F901F9018958081F4CFE2E8F1E0138209
:10090000128288EE93E0A0E0B0E084839583A68312
:10091000B78384E091E09183808385EC90E09587B4
:10092000848784EC90E09787868780EC90E0918BB9
:10093000808B81EC90E0938B828B82EC90E0958BA6
:10094000848B86EC90E0978B868B118E128E138EA3
:10095000148E10922C020895789484B5826084BD20
:1009600084B5816084BD85B5826085BD85B58160B3
:1009700085BD80916E00816080936E001092810031
:1009800080918100826080938100809181008160EC
:1009900080938100809180008160809380008091AD
:1009A000B10084608093B1008091B0008160809339
:1009B000B00080917A00846080937A0080917A0000
:1009C000826080937A0080917A00816080937A00BF
:1009D00080917A00806880937A001092C1000E9412
:1009E0008C0061E087E00E940B0161E086E00E94DC
:1009F0000B0160E084E00E940B0161E08AE00E944C
:100A00000B010E948C0061E087E00E94DD0061E044
:100A100086E00E94DD0060E08AE00E94DD0040E99F
:100A2000442E55245394612C712C5EE9252E50E000
:100A3000352E0AE810E080917801813309F0CBC0AF
:100A400060E087E00E94DD0081E291E00E94F10217
:100A500080912C02882309F0F894E2EAF0E0D49027
:100A6000EEE8F0E08491E82FF0E0EE0FFF1FE85988
:100A7000FF4FE590F49061E088E00E940B0160E098
:100A800088E00E94DD0062E170E080E090E00E947A
:100A9000610161E088E00E94DD0060E088E00E9482
:100AA0000B0180E293E0E70128812D2109F4AFC01A
:100AB0000197C9F780912C028111FDC08091270216
:100AC0008F778093270260912902B62EE894B7F8B9
:100AD000B0922902682F70E090E080E00E947007D9
:100AE0006B017C01C0921F02D0922002E092210291
:100AF000F09222026B2D70E090E080E00E9470077F
:100B00004B015C018092230290922402A092250264
:100B1000B092260283E491E00E94A00242E0C50167
:100B2000B4010E94FF0282E591E00E94A00289E5E3
:100B300091E00E94A00242E0C701B6010E94FF02BC
:100B400085E691E00E94F10284E191E00E94F102C9
:100B5000E2EBF0E08491F101F490F801E490EE20F2
:100B600079F081110E94B400EE2DF0E0EE0FFF1F2E
:100B7000E859FF4FA591B4918C91F82260E029F4D7
:100B800088E691E00E94F10261E08AE00E94DD00C7
:100B900082E891E00E94F101892B51F082E891E016
:100BA0000E94CF018093780182E891E00E94CF01FA
:100BB0006CED75E080E090E00E94610180E090E0E3
:100BC000892B09F438CF0E94FD01882309F433CF23
:100BD0000E94000030CF823339F461E087E00E9448
:100BE000DD008AE291E032CF833339F460E086E0C1
:100BF0000E94DD0084E391E029CF843309F028CFFF
:100C000061E086E00E94DD008BE391E01FCF80E988
:100C100091E0F70120812D2119F40197D1F74ACFF6
:100C200080E991E0E70128812D2189F10197D1F731
:100C300041CF6B2FAA2309F43DCFE701B881BD2135
:100C400019F5662309F1A83271F58417950708F4A0
:100C5000AC01C301B201641B750B8109910922E04B
:100C600095958795779567952A95D1F79B01E69598
:100C700041F4EB2DF0E0E15EFD4FC086B394C12C52
:100C8000E0E8A15080E991E0019799F613CFB12CEB
:100C9000C12CE0E830E020E080E991E040E951E05B
:100CA00060E0A8E2CACFBA01621B730B681779072C
:100CB000F0F2CE2ADCCF789401CF5058BB27AA2778
:100CC0000E9475060C94E8070E94DA0738F00E942B
:100CD000E10720F039F49F3F19F426F40C94D7076C
:100CE0000EF4E095E7FB0C94D107E92F0E94F90779
:100CF00058F3BA17620773078407950720F079F451
:100D0000A6F50C941B080EF4E0950B2EBA2FA02D1F
:100D10000B01B90190010C01CA01A0011124FF27A8
:100D2000591B99F0593F50F4503E68F11A16F040A3
:100D3000A22F232F342F4427585FF3CF46953795A2
:100D40002795A795F0405395C9F77EF41F16BA0B67
:100D5000620B730B840BBAF09150A1F0FF0FBB1F15
:100D6000661F771F881FC2F70EC0BA0F621F731F5E
:100D7000841F48F4879577956795B795F7959E3FBB
:100D800008F0B0CF9395880F08F09927EE0F97954C
:100D9000879508950E94AD0708F481E008950E94A8
:100DA000E3060C94E8070E94E10758F00E94DA0776
:100DB00040F029F45F3F29F00C94D10751110C94B5
:100DC0001C080C94D7070E94F90768F39923B1F324
:100DD000552391F3951B550BBB27AA276217730761
:100DE000840738F09F5F5F4F220F331F441FAA1FF5
:100DF000A9F335D00E2E3AF0E0E832D091505040B1
:100E0000E695001CCAF72BD0FE2F29D0660F771F5E
:100E1000881FBB1F261737074807AB07B0E809F044
:100E2000BB0B802DBF01FF2793585F4F3AF09E3FC9
:100E3000510578F00C94D1070C941C085F3FE4F343
:100E4000983ED4F3869577956795B795F7959F5F0C
:100E5000C9F7880F911D9695879597F90895E1E058
:100E6000660F771F881FBB1F621773078407BA07B7
:100E700020F0621B730B840BBA0BEE1F88F7E09512
:100E800008950E94010888F09F5798F0B92F99277C
:100E9000B751B0F0E1F0660F771F881F991F1AF065
:100EA000BA95C9F714C0B13091F00E941B08B1E0A7
:100EB00008950C941B08672F782F8827B85F39F0A6
:100EC000B93FCCF3869577956795B395D9F73EF4FE
:100ED00090958095709561957F4F8F4F9F4F0895A6
:100EE000E89409C097FB3EF49095809570956195C4
:100EF0007F4F8F4F9F4F9923A9F0F92F96E9BB277A
:100F00009395F695879577956795B795F111F8CFF5
:100F1000FAF4BB0F11F460FF1BC06F5F7F4F8F4F60
:100F20009F4F16C0882311F096E911C0772321F056
:100F30009EE8872F762F05C0662371F096E8862FEE
:100F400070E060E02AF09A95660F771F881FDAF745
:100F5000880F9695879597F90895990F0008550F72
:100F6000AA0BE0E8FEEF16161706E807F907C0F02F
:100F700012161306E407F50798F0621B730B840B37
:100F8000950B39F40A2661F0232B242B252B21F411
:100F900008950A2609F4A140A6958FEF811D811DB1
:100FA000089597F99F6780E870E060E008959FEFEB
:100FB00080EC089500240A941616170618060906F0
:100FC000089500240A9412161306140605060895BF
:100FD000092E0394000C11F4882352F0BB0F40F447
:100FE000BF2B11F460FF04C06F5F7F4F8F4F9F4F87
:100FF000089557FD9058440F551F59F05F3F71F009
:101000004795880F97FB991F61F09F3F79F087956F
:101010000895121613061406551FF2CF4695F1DFF8
:1010200008C0161617061806991FF1CF8695710588
:10103000610508940895E894BB2766277727CB01BC
:1010400097F908950E94AD0708F48FEF08950E9464
:101050003A080C94E8070E94DA0738F00E94E1078A
:1010600020F0952311F00C94D1070C94D70711248C
:101070000C941C080E94F90770F3959FC1F3950F1B
:1010800050E0551F629FF001729FBB27F00DB11D0C
:10109000639FAA27F00DB11DAA1F649F6627B00D9C
:1010A000A11D661F829F2227B00DA11D621F739F85
:1010B000B00DA11D621F839FA00D611D221F749F93
:1010C0003327A00D611D231F849F600D211D822FDA
:1010D000762F6A2F11249F5750409AF0F1F0882301
:1010E0004AF0EE0FFF1FBB1F661F771F881F91502E
:1010F0005040A9F79E3F510580F00C94D1070C9405
:101100001C085F3FE4F3983ED4F386957795679586
:10111000B795F795E7959F5FC1F7FE2B880F911D57
:101120009695879597F908950E94AD07880B990BBE
:101130000895A1E21A2EAA1BBB1BFD010DC0AA1F18
:10114000BB1FEE1FFF1FA217B307E407F50720F030
:10115000A21BB30BE40BF50B661F771F881F991FAB
:101160001A9469F760957095809590959B01AC01F4
:10117000BD01CF010895EE0FFF1F0590F491E02D02
:061180000994F894FFCF72
:101186000000000033029301C0018002F101CF018B
:10119600E3010D0A006E616E00696E66006F766689
:1011A600004C69676874204F6E004C69676874204C
:1011B6004F66660046616E204F6E0046616E204F98
:1011C60066660054656D7065726174757265203D62
:1011D6002000C2B043207C200048756D69646974A4
:1011E60079203D2000252000466C616D65206465F0
:0811F600746563746564210057
:00000001FF
